:020000040800F2
:1000000050090020691C00086D1B00086F1B0008C8
:10001000711B0008731B0008751B0008000000001E
:10002000000000000000000000000000771B000836
:10003000791B0008000000007B1B00087D1B0008E6
:10004000951C0008991C00089D1C0008A11C0008B4
:10005000A51C0008A91C0008AD1C0008B11C000864
:10006000B51C0008B91C0008BD1C0008C11C000814
:10007000C51C0008C91C0008CD1C0008D11C0008C4
:10008000D51C0008D91C0008DD1C0008E11C000874
:10009000E51C0008E91C0008ED1C0008F11C000824
:1000A000F51C0008F91C0008FD1C0008011D0008D3
:1000B000851B00088F1B0008051D0008091D00088E
:1000C0000D1D0008111D0008151D0008191D000850
:1000D0001D1D0008211D0008251D0008291D000800
:1000E0002D1D0008311D0008351D000870B50400E5
:1000F0002000C0B20A21DFF8B069DFF8B05990FBE8
:10010000F1F201FB120000012844C0680200D2B2E3
:100110004FF48051300000F0DCFD2000C0B20A2115
:1001200090FBF1F201FB12000001284480680200FC
:10013000D2B24FF40061300000F0CBFD2000C0B21D
:100140000A2190FBF1F201FB1200000128444068F3
:100150000200D2B24FF48071300000F0BAFD2000EE
:10016000C0B20A2190FBF1F201FB120000012858F5
:100170000200D2B24FF48061300000F0AAFDDFF837
:1001800030692000C0B20A2190FBF1F00001284440
:10019000C0680200D2B24FF40071300000F099FD47
:1001A0002000C0B20A2190FBF1F0000128448068D1
:1001B0000200D2B24FF48071300000F08AFD2000BE
:1001C000C0B20A2190FBF1F000012844406802000F
:1001D000D2B28021300000F07CFDE4B20A2094FB12
:1001E000F0F0000128580200D2B24021300000F0A7
:1001F00070FD70BDF8B504002000C0B20A21DFF820
:10020000A858DFF8A86890FBF1F201FB120000018A
:100210003044C0680200D2B24FF40071280000F0F0
:1002200058FD2000C0B20A21DFF8847890FBF1F27B
:1002300001FB12000001304480680200D2B24FF48A
:100240000041380000F045FD2000C0B20A2190FBBB
:10025000F1F201FB12000001304440680200D2B20A
:100260004FF48041380000F034FD2000C0B20A2174
:1002700090FBF1F201FB1200000130580200D2B2F3
:100280004FF40051380000F024FD2000C0B20A21D4
:1002900090FBF1F000013044C0680200D2B220218E
:1002A000380000F016FD2000C0B20A2190FBF1F0EA
:1002B0000001304480680200D2B21021380000F002
:1002C00008FD2000C0B20A2190FBF1F0000130448B
:1002D00040680200D2B20821380000F0FAFCE4B213
:1002E0000A2094FBF0F0000130580200D2B24FF423
:1002F0000041280000F0EDFCF1BD70B5DFF8B44717
:100300002078012837D1DFF8A057012201212800E9
:1003100000F0DFFC01224021280000F0DAFC00227E
:100320000221280000F0D5FC00228021280000F0E6
:10033000D0FC00220421280000F0CBFC0022012187
:10034000DFF86C0700F0C5FCDFF86C572878FFF782
:10035000CDFE287800280BD10020FFF7C7FE012032
:10036000DFF8581708701E2028700020207002E067
:100370002878401E2870DFF844572878012837D1A4
:10038000DFF8246700220121300000F0A2FC0022E7
:100390004021300000F09DFC00220221300000F0DE
:1003A00098FC00228021300000F093FC01220421FF
:1003B000300000F08EFC01220121DFF8F40600F08D
:1003C00088FCDFF8FC663078FFF790FE3078002874
:1003D0000BD10020FFF78AFE0120DFF8E816087035
:1003E000192030700020287002E03078401E3070F4
:1003F000DFF8D0562878012835D1DFF8AC66002226
:100400000121300000F065FC00224021300000F0A6
:1004100060FC01220221300000F05BFC01228021FF
:10042000300000F056FC00220421300000F051FCA6
:1004300000220121DFF8780600F04BFCDFF8886627
:100440003078FFF753FE3078002809D10020FFF7FD
:100450004DFE01202070052030700020287002E041
:100460003078401E307070BDF8B5DFF860462078F7
:1004700001283AD1DFF8305601220821280000F087
:1004800028FCDFF82C6601220221300000F021FC5C
:1004900000221021280000F01CFC00224FF4806193
:1004A000300000F016FC00222021280000F011FC92
:1004B00000224FF40061300000F00BFCDFF8105612
:1004C0002878FFF797FE287800280BD10020FFF747
:1004D00091FE0120DFF8FC1508701E202870002016
:1004E000207002E02878401E2870DFF8E855287850
:1004F00001283AD1DFF8B06500220821300000F071
:10050000E8FBDFF8AC7500220221380000F0E1FBC7
:1005100000221021300000F0DCFB00224FF480614B
:10052000380000F0D6FB01222021300000F0D1FB82
:1005300001224FF40061380000F0CBFBDFF8986532
:100540003078FFF757FE307800280BD10020FFF7F6
:1005500051FE0120DFF8841508701920307000204A
:10056000287002E03078401E3070DFF8705528782F
:10057000012838D1DFF8306500220821300000F072
:10058000A8FBDFF82C7500220221380000F0A1FB47
:1005900001221021300000F09CFB01224FF4806109
:1005A000380000F096FB00222021300000F091FB83
:1005B00000224FF40061380000F08BFBDFF820656B
:1005C0003078FFF717FE3078002809D10020FFF7B8
:1005D00011FE01202070052030700020287002E0FC
:1005E0003078401E3070F1BD38B50068DFF8F41483
:1005F0000968884240F0F080DFF8EC14DFF8EC2462
:10060000137808780343DBB2002B04D1FFF775FEA3
:10061000FFF72AFFE0E01078012848D10020FFF71B
:1006200065FD0020FFF7E6FDDFF87C440022012194
:10063000200000F04EFB00224021200000F049FB8A
:1006400001220221200000F044FB01228021200031
:1006500000F03FFB00220421200000F03AFBDFF80D
:10066000505400220121280000F033FB0022082111
:10067000200000F02EFB00220221280000F029FBC0
:1006800001221021200000F024FB01224FF48061A0
:10069000280000F01EFB00222021200000F019FBA2
:1006A00000224FF40061280000F013FB94E008786A
:1006B000012848D10020FFF719FD0020FFF79AFD1F
:1006C000DFF8E44301220121200000F002FB0122B7
:1006D0004021200000F0FDFA00220221200000F05D
:1006E000F8FA00228021200000F0F3FA0022042111
:1006F000200000F0EEFADFF8B853002201212800B4
:1007000000F0E7FA00220821200000F0E2FA0022BF
:100710000221280000F0DDFA00221021200000F064
:10072000D8FA00224FF48061280000F0D2FA0122AA
:100730002021200000F0CDFA01224FF400612800B2
:1007400000F0C7FA48E00878022845D10020FFF7FA
:10075000CDFC0020FFF74EFDD34C002201212000EC
:1007600000F0B7FA00224021200000F0B2FA002287
:100770000221200000F0ADFA00228021200000F0CC
:10078000A8FA01220421200000F0A3FAC84D01229A
:100790000121280000F09DFA01220821200000F02C
:1007A00098FA01220221280000F093FA0022102179
:1007B000200000F08EFA00224FF48061280000F043
:1007C00088FA00222021200000F083FA00224FF452
:1007D0000061280000F07DFA31BD70B500F0A4FA88
:1007E00000F05CF800F000F900F08AF800F0C2F8C0
:1007F0000020FFF77BFC0020FFF7FCFC4FF47A7031
:1008000000F0A4FABA4800F0ECFAB64800F0E9FAB1
:10081000B84EB94C4FF40051200000F051FA30703E
:10082000A34D4FF48051280000F04AFA70704FF445
:100830000051200000F044FA00280DD1502000F0B3
:1008400085FA4FF40051200000F03AFA002803D155
:10085000A6480178491C01704FF48051280000F02F
:100860002FFA00280DD1502000F070FA4FF480517B
:10087000280000F025FA002803D19B480178491C84
:1008800001709A480178022901DB00210170964825
:1008900001780329BCDB00210170B9E700B58FB0F6
:1008A00005A8282100F07AFC6846142100F076FCA7
:1008B000022005900120099010200A9002200C903F
:1008C00000200D905FF460100E9005A800F086FCEB
:1008D000002801D000F01AF90F20009002200190AA
:1008E000002002904FF4806003900490022168463B
:1008F00000F05DFE002801D000F008F90FB000BD47
:1009000010B586B002A8102100F048FC7B48D0E961
:100910000023CDE90023764C5FF08040206040202A
:1009200060600020A06044F61F60E060002020614D
:100930000020A061200000F01DFA002801D000F086
:10094000E5F84FF48050029002A9200000F041FB2E
:10095000002801D000F0DAF800200090002001907B
:100960006946200000F02CFF002801D000F0CEF8EE
:1009700006B010BD10B586B002A8102100F00EFC24
:100980005F48D0E90023CDE90023564C5D48206044
:1009900045F6D81060600020A06040F2CF70E060A3
:1009A000002020610020A061200000F0E3F9002871
:1009B00001D000F0ABF84FF48050029002A9200063
:1009C00000F007FB002801D000F0A0F80020009004
:1009D000002001906946200000F0F2FE002801D0BE
:1009E00000F094F806B010BDF0B585B0684610214F
:1009F00000F0D4FB4448016851F010010160016827
:100A000011F0100104910499016851F00401016092
:100A1000016811F0040104910499016851F0080182
:100A20000160006810F008000490049849F6FF7710
:100A30001D4C00223900200000F04BF94EF6FB75EA
:100A40001B4E00222900300000F043F94FF4005003
:100A5000009000200190012002906946264800F095
:100A600057F8009701200190002002900320039086
:100A70006946200000F04CF800950120019000200C
:100A80000290032003906946300000F041F84FF4D3
:100A900080500090002001900120029069463000B3
:100AA00000F036F805B0F0BD00080140000000205D
:100AB000000C0140A8000020AA0000204D010020E9
:100AC000AB0000204C010020AC0000204E010020B3
:100AD000AD000020A9000020AE0000204F01002042
:100AE000AF000020FC0000204B0100204A01002044
:100AF000B40000204801002000100140841C0008C0
:100B00008C1C0008000400401810024072B6FEE77A
:100B1000F8B502000023002514E0DFF8CC010668D8
:100B200036EA040404600CE0DFF8C0010668A6435E
:100B3000066048688002F0D5DFF8AC0106683443EF
:100B400004605B1C0868D840002800F0B8800126CB
:100B50009E400C683440B442F3D14868002827D046
:100B600001281AD002281DD003282FD0112816D012
:100B700012281AD05E4FB8421AD05E4FB84217D032
:100B80005D4FB84214D05D4FB84211D05C4FB842AF
:100B90000ED05C4FB8420BD01AE0CD6818E0CD689B
:100BA0002D1D15E0CD68083512E0CD680C350FE03D
:100BB0008868002801D1042507E08868012802D14F
:100BC0000825166101E00825566101E00025FFE7D0
:100BD000B4F5807F01D2170000E0171DB4F5807FC7
:100BE00002D25FEA830C03E0B3F1080C5FEA8C0CDD
:100BF0000F26D7F800E016FA0CF03EEA000E15FAC0
:100C00000CFC5CEA0E0CC7F800C04868C00098D520
:100C10003D48076857F001070760006810F00100C1
:100C200000900098394F1800800857F820C013F042
:100C30000300C0B2800086403CEA060C3448824281
:100C400001D100260FE03348824201D101260AE09B
:100C50003148824201D1022605E03048824201D16A
:100C6000032600E0042613F00300C0B28000864093
:100C700056EA0C0C1800800847F820C04868C003EA
:100C800004D5274806682643066003E02448066822
:100C9000A64306604868800304D5224806682643B8
:100CA000066003E01F480668A64306604868C00265
:100CB0007FF53AAF0D4806682643066039E7F1BD77
:100CC000806889B2084201D0012000E00020C0B253
:100CD0007047D2B2002A02D089B2016102E089B223
:100CE00009040161704700000C0401400804014040
:100CF000000011100000121000002110000022104E
:100D000000003110000032101810024008000140AD
:100D100000080140000C0140001001400014014097
:100D2000000401400404014080B50748016851F007
:100D300010010160032000F0E8FD002000F014FE27
:100D400000F038FE002002BD0020024038B504004B
:100D500000F086FE050014F1010F02D0044800786F
:100D6000041900F07DFE401BA042FAD331BD00BF44
:100D7000B000002010B50400002C01D101202FE0AC
:100D800094F83D00002805D1002084F83C002000A4
:100D900000F02EFE022084F83D00211D206800F0A6
:100DA0008CF9012084F84600012084F83E000120DF
:100DB00084F83F00012084F84000012084F84100BD
:100DC000012084F84200012084F84300012084F8C7
:100DD0004400012084F84500012084F83D000020F3
:100DE00010BD90F83D10012901D001202FE0022113
:100DF00080F83D100168C96851F001010268D160B6
:100E00000168DFF84C2091420DD00168B1F1804FAC
:100E100009D00168DFF83C20914204D00168DFF876
:100E2000382091420CD10168896811F00701062928
:100E30000CD00168096851F001010068016005E00B
:100E40000168096851F001010068016000207047E5
:100E5000002C0140000400400008004010B50400D0
:100E60002068006980071AD52068C068800716D5F9
:100E70007FF00200216808610120207720688069E6
:100E800010F0030F03D0200000F0F0FD05E020007B
:100E900000F0EDFD200000F0EBFD00202077206841
:100EA000006940071AD52068C068400716D57FF052
:100EB000040021680861022020772068806910F40E
:100EC000407F03D0200000F0D1FD05E0200000F0BD
:100ED000CEFD200000F0CCFD0020207720680069C6
:100EE00000071AD52068C068000716D57FF00800F3
:100EF00021680861042020772068C06910F0030F82
:100F000003D0200000F0B2FD05E0200000F0AFFDAE
:100F1000200000F0ADFD0020207720680069C006A9
:100F20001AD52068C068C00616D57FF01000216869
:100F30000861082020772068C06910F4407F03D042
:100F4000200000F093FD05E0200000F090FD20005F
:100F500000F08EFD0020207720680069C0070AD5C8
:100F60002068C068C00706D57FF0010021680861CD
:100F70002000FFF739FB2068006900060AD52068C9
:100F8000C068000606D57FF0800021680861200057
:100F900000F06FFD2068006940060AD52068C0682F
:100FA000400606D57FF0400021680861200000F06F
:100FB00061FD2068006980060AD52068C068800647
:100FC00006D57FF0200021680861200000F053FD65
:100FD00010BD10B5040094F83C00012801D1022096
:100FE0006AE0012084F83C00022084F83D0020687B
:100FF000806830F0770030F47F40226890600868A5
:1010000000284DD010284BD0202849D0302847D078
:1010100040283BD0502825D060282DD0702807D0FC
:10102000B0F5805F03D0B0F5005F0ED03DE03CE04E
:10103000CB684A688968206800F0A5F82068806855
:1010400050F07700216888602FE0CB684A68896893
:10105000206800F098F82068806850F4804021688B
:10106000886022E0CA684968206800F05FF8502173
:10107000206800F080F818E0CA684968206800F02D
:1010800067F86021206800F076F80EE0CA684968C9
:10109000206800F04BF84021206800F06CF804E074
:1010A0000968206800F067F8FFE7012084F83D0038
:1010B000002084F83C00002010BD10B40368184CD8
:1010C000A04208D0B0F1804F05D0164A904202D01D
:1010D000154A904203D133F070034A681343A0428B
:1010E00008D0B0F1804F05D00E4A904202D00E4A8F
:1010F000904203D133F44073CA68134333F0800342
:101100004A69134303608A68C2620A688262A04225
:1011100001D1096901630121416110BC70470000E0
:10112000002C0140000400400008004010B4046A94
:10113000036A5B085B000362836933F0F00353EAE0
:10114000021334F00A0421438361016210BC70472A
:1011500010B4036A33F0100303628369046A33F442
:10116000704353EA023334F0A00454EA011483615B
:10117000046210BC7047826832F0700251F00701BF
:1011800011438160704710B4846834F47F44114384
:1011900051EA03212143816010BC7047002200F016
:1011A0006BBC30B4002513E050F8042BD30744BFC8
:1011B000A9F101039A18091F042942F8045BFAD225
:1011C00013468C0744BF15809B1CC90748BF1D7080
:1011D00050F8041B0029E7D130BC70472DE9FC41D1
:1011E0000400002C01D10120DFE12078C0076BD57D
:1011F000DFF88C05016811F00C01042907D00168A3
:1012000011F00C0108290CD10068C00309D5DFF8E2
:101210006C050068800357D56068002854D1012010
:10122000C3E16068B0F5803F06D1DFF85005016882
:1012300051F48031016026E0606800280AD1DFF8AF
:101240003C05016831F480310160016831F480218E
:10125000016018E06068B0F5A02F0AD1DFF81C0526
:10126000016851F480210160016851F4803101600E
:1012700009E0DFF80805016831F480310160016898
:1012800031F480210160606800280ED000F0E8FB96
:101290000500DFF8E8040068800315D400F0E0FBE7
:1012A000401B6528F5D303207FE100F0D9FB050042
:1012B000DFF8C8040068800306D500F0D1FB401BAE
:1012C0006528F5D3032070E1207880071ED5DFF86C
:1012D000B004016811F00C0F07D0016811F00C0187
:1012E00008292CD10068C00329D4DFF890040168D4
:1012F000890704D52169012901D0012055E1016840
:1013000031F0F801626951EAC201016020780007FA
:1013100049D5A069002871D00120DFF87814086051
:1013200000F09EFB0500DFF868040068800737D4F2
:1013300000F096FB401B0328F5D3032035E120691C
:1013400000281AD00120DFF85014086000F088FB54
:101350000500DFF828040168890706D400F080FB47
:10136000401B0328F5D303201FE1016831F0F80189
:10137000626951EAC2010160C8E70020DFF8181471
:10138000086000F06DFB0500DFF8F00300688007DF
:10139000BCD500F065FB401B0328F5D3032004E116
:1013A000012000F0D8F92078400740F1968000260F
:1013B000DFF8E8532868C00009D4286850F080504E
:1013C0002860286810F08050009000980126DFF80F
:1013D000D0733868C00524D4386850F48070386001
:1013E00000F03EFB80463868C0051AD400F038FB98
:1013F000B0EB08006528F6D30320D6E00020DFF824
:101400009413086000F02CFB0500DFF884030068EB
:101410008007C8D500F024FB401B0328F5D3032028
:10142000C3E0E068012806D1DFF87803016851F0D5
:101430000101016025E0E06800280AD1DFF86403BB
:101440000168490849000160016831F00401016048
:1014500017E0E06805280AD1DFF84803016851F079
:1014600004010160016851F00101016009E0DFF849
:1014700034030168490849000160016831F0040142
:101480000160E068002810D000F0EAFA0700DFF8F9
:1014900014030068800719D400F0E2FAC01B41F27F
:1014A00089318842F3D303207FE000F0D9FA0700A6
:1014B000DFF8F0020068800708D500F0D1FAC01B01
:1014C00041F289318842F3D303206EE0F6B2012E57
:1014D00003D1286830F080502860E069002863D08C
:1014E000DFF89C62306810F00C0008284AD0E069F0
:1014F000022834D1DFF8B0720020386000F0B0FA72
:101500008046DFF878522868800107D500F0A8FAF5
:10151000B0EB08000328F4D3032046E0206AB0F5BE
:10152000803F05D1316831F40031A068014331605A
:10153000316831F47411206A0143606A01433160FB
:101540000120386000F08CFA0400286880012BD458
:1015500000F086FA001B0328F7D3032025E00020C3
:10156000DFF84412086000F07BFA0400DFF80C0298
:101570000068800118D500F073FA001B0328F5D32A
:10158000032012E0E069012801D101200DE030685C
:1015900010F48031226A914204D110F47010616A13
:1015A000884201D0012000E00020BDE8F6812DE94D
:1015B000F04104000E00002C01D1012098E0DFF87A
:1015C000EC51286810F00700B0420BD22868C00820
:1015D000C00030432860286810F00700B04201D0F6
:1015E000012085E02078800716D52078400704D5B3
:1015F0006348016851F4E06101602078000704D578
:101600005F48016851F4605101605D490A6832F039
:10161000F002A06802430A602078C00732D56068F3
:10162000012805D155480068800310D401205FE0EF
:101630006068022805D151480068800107D4012064
:1016400056E04E480068800701D4012050E04C4F1E
:1016500039688908890060680143396000F000FA40
:101660008046386810F00C006168B0EB810F09D03B
:1016700000F0F6F9B0EB080041F289318842F0D36E
:10168000032035E0286810F0070086420BD2286856
:10169000C008C00030432860286810F00700B0423E
:1016A00001D0012024E02078400706D534490A689B
:1016B00032F4E062E06802430A602078000707D550
:1016C0002F48016831F46051226951EAC20101607A
:1016D00000F010F836492A4A1268C2F30312895CF6
:1016E000C840294908602948006800F03DF90020F9
:1016F000BDE8F08100B585B001A82E49102200F0A8
:10170000D5F92D480088ADF8000000200020002009
:10171000002000201A4A116811F00C00042802D0A1
:10172000082802D014E0174813E001A8C1F383434E
:10173000C05CC90309D569461268C2F340428A5C9D
:1017400010494843B0FBF2F001E01C49484300E077
:101750000C4805B000BD81B00B490968C9084FF4B9
:101760007A72B1FBF2F14843009000BF0098411E2D
:1017700000910028F9D101B070470000001002402C
:101780000410024000127A00A4000020A0000020F3
:101790002410024080044242000042421C100240D9
:1017A00000700040201002406000424200200240D1
:1017B000581C0008481C0008AA1A000800093D002F
:1017C00010B490F83C20012A01D102202CE0012223
:1017D00080F83C20022280F83D20026854680268AC
:1017E000936834F070040A68144302685460026815
:1017F000104CA2420BD00268B2F1804F07D00268B1
:101800000D4CA24203D00268094CA24205D133F02C
:10181000800349680B4301688B60012180F83D100B
:10182000002180F83C10002010BC70470000000030
:1018300000080040002C01400004004010F00700A8
:10184000414B1A684FF6FF010A40404951EA002116
:101850000A431A6070473C480068C0F30220704792
:10186000010049B2002908D4012210F01F018A406A
:10187000374940B2400941F820207047020052B277
:10188000002A04D40901334A40B2115407E0090187
:10189000314A40B210F00F00104400F8041C7047A9
:1018A00010B410F00700D0F10703052B01D3042377
:1018B00001E0D0F10703041D072C01D2002000E055
:1018C000C01E012414FA03F35B1E1940814014FA70
:1018D00000F0401E1040084310BC704780B5411E08
:1018E000B1F1807F01D301200EE0401E1B4908604A
:1018F0000F215FF0FF30FFF7C1FF0020184908609B
:10190000072018490860002002BD80B5FFF796FF48
:1019100001BD70B504000D0016000020FFF79BFF0D
:1019200032002900FFF7BCFF0100200040B2FFF7A2
:10193000A5FF70BD80B540B2FFF792FF01BD80B535
:10194000FFF7CCFF02BD00000CED00E00000FA053F
:1019500000E100E000E400E018ED00E014E000E049
:1019600018E000E010E000E010B504004FF47A70D9
:101970000D490978B0FBF1F00C490968B1FBF0F0B2
:10198000FFF7DDFF002801D001200CE0102C09D268
:10199000002221005FF0FF30FFF7BBFF0448046026
:1019A000002000E0012010BDB0000020A4000020B5
:1019B000A000002081B02648016851F001010160BB
:1019C000006810F00100009000982248016851F072
:1019D00080510160006810F08050009000981E490E
:1019E000086830F0E06050F00070086001B07047A7
:1019F00080B50168B1F1804F12D11648016851F0ED
:101A000001010160006810F00100009000980022C0
:101A100000211C20FFF77DFF1C20FFF78BFF15E046
:101A200000680E49884211D10A48016851F002014C
:101A30000160006810F00200009000980022002170
:101A40001D20FFF766FF1D20FFF774FF01BD00009A
:101A5000181002401C100240040001400004004025
:101A600001480068704700BF44010020704770477C
:101A7000704770477047704700B500BF1300964627
:101A80009446103928BFA0E80C50FAD85FEA417C90
:101A900028BF0CC048BF40F8042BC90728BF20F856
:101AA000022B48BF00F8012B00BD0102103A07D3FA
:101AB00030B4B1E83810103AA0E83810F9D230BC90
:101AC000530724BFB1E80810A0E8081044BF51F83C
:101AD000043B40F8043BD20724BF31F8022B20F826
:101AE000022B44BF0B7803707047121F17D35B00A3
:101AF00009D151F8043B20F8023B1B0C121F20F8BF
:101B0000023BF6D20BE051F8043B00F8013B1B0A04
:101B100020F8023B1B0C121F00F8013BF3D238BF28
:101B2000121D521E24BF11F8013B00F8013BF8D8EA
:101B3000704730B5016884684218416802EB510370
:101B4000C9070BD54C4409E012F9011B12F8015BDF
:101B5000002904F8015B05D5491CF9D19A42F3D15B
:101B60000C3030BD491EF1D5F8E70000FEE7FEE776
:101B7000FEE7FEE7FEE770477047704780B500F06C
:101B80000FF801BD80B50448FFF768F901BD80B5C5
:101B90000248FFF763F901BDB4000020FC000020FB
:101BA00003490A680348007882180A60704700BF3A
:101BB00044010020B000002010B5074979441831D5
:101BC000064C7C44163404E00A68081D114488471A
:101BD0000146A142F8D110BD080000002400000019
:101BE000C3F5FFFF9C000000B400002000000000CF
:101BF00043FFFFFF460100009E00000000000020A0
:101C000000F00DF8002801D0FFF7D6FFAFF30080F9
:101C10000020AFF30080FEF7E0FD00F002F80120A5
:101C2000704700F001B800000746384600F002F89F
:101C3000FBE7000080B5AFF30080024A11001820D6
:101C4000ABBEFBE7260002000203040506070809F5
:101C50000A0B0C0D0E0F1010000000000000000019
:101C600001020304060708090148804701480047AC
:101C7000391D0008791C0008AFF30080AFF3008025
:101C8000FFF7BEFF000000000000000000000000A1
:101C900000000000FFF7FEBFFFF7FEBFFFF7FEBF2B
:101CA000FFF7FEBFFFF7FEBFFFF7FEBFFFF7FEBF68
:101CB000FFF7FEBFFFF7FEBFFFF7FEBFFFF7FEBF58
:101CC000FFF7FEBFFFF7FEBFFFF7FEBFFFF7FEBF48
:101CD000FFF7FEBFFFF7FEBFFFF7FEBFFFF7FEBF38
:101CE000FFF7FEBFFFF7FEBFFFF7FEBFFFF7FEBF28
:101CF000FFF7FEBFFFF7FEBFFFF7FEBFFFF7FEBF18
:101D0000FFF7FEBFFFF7FEBFFFF7FEBFFFF7FEBF07
:101D1000FFF7FEBFFFF7FEBFFFF7FEBFFFF7FEBFF7
:101D2000FFF7FEBFFFF7FEBFFFF7FEBFFFF7FEBFE7
:101D3000FFF7FEBFFFF7FEBF7047E4000001F500AC
:101D40000001F1000001FD000001F9000001F100B7
:101D50000001F9000001F9000001FD000001F5009B
:101D60000001FD000001FD000001FD000001F10087
:101D70000001F5000001FD000010FC000B24F40040
:091D800001011E19051E190501DF
:0400000508001C795A
:00000001FF
